S00E000054696D6572302E73726563E5
S11300000C942A000C943C000C943C000C943C008E
S11300100C943C000C943C000C943C000C943C006C
S11300200C943C000C943C000C948B000C943C000D
S11300300C943C000C943C000C943C000C943C004C
S11300400C943C000C943C000C943C000C943C003C
S11300500C943C0011241FBECFE5D8E0DEBFCDBF19
S113006020E0A0E6B0E001C01D92AA36B207E1F795
S11300700E943E000C94EE000C940000BB9AA29ADD
S1130080AA9A95B384E0892785BB90E00E948600F4
S11300900E9455006AEF70E080E090E00E946E00DC
S11300A084E690E00E947C00FFCF83B7886083BF22
S11300B083B7806483BF83B7806283BF83B7816063
S11300C083BF83B7826083BF83B78F7783BF8FB7C4
S11300D080688FBF89B7816089BF08956CBF84E051
S11300E090E0A0E0B0E08093640090936500A0935A
S11300F06600B0936700089520E0982F822F64E68D
S113010070E00E94DA0061506CBF0895909369001A
S11301108093680008951F920F920FB60F921124D6
S11301202F933F934F935F936F937F938F939F93FB
S1130130AF93BF93EF93FF93809160009091610020
S1130140A0916200B09163000196A11DB11D80933E
S1130150600090936100A0936200B09363004091AB
S11301606400509165006091660070916700841787
S11301709507A607B70769F4109260001092610012
S11301801092620010926300E0916800F09169009F
S11301900995FF91EF91BF91AF919F918F917F91BD
S11301A06F915F914F913F912F910F900FBE0F90E0
S11301B01F901895AA1BBB1B51E107C0AA1FBB1FA8
S11301C0A617B70710F0A61BB70B881F991F5A95DF
S11301D0A9F780959095BC01CD010895F894FFCFBF
S9030000FC
