S014000055534152545F4472697665722E73726563B6
S11300000C942A000C943F000C943F000C943F0085
S11300100C943F000C943F000C943F000C943F0060
S11300200C943F000C943F000C943F000C943F0050
S11300300C943F000C943F000C943F000C943F0040
S11300400C943F000C943F000C943F000C943F0030
S11300500C943F0011241FBECFE5D8E0DEBFCDBF16
S113006010E0A0E6B0E0ECEEF1E002C005900D92E5
S1130070A636B107D9F70E94B2000C94F4000C9490
S113008000004423B9F1413009F06BC0813089F09C
S113009028F08230C9F0833011F108952AB381E049
S11300A090E002C0880F991F6A95E2F7822B8ABB01
S11300B0089527B381E090E002C0880F991F6A95E4
S11300C0E2F7822B87BB089524B381E090E002C05D
S11300D0880F991F6A95E2F7822B84BB089521B398
S11300E081E090E002C0880F991F6A95E2F7822BA5
S11300F081BB0895813091F028F08230D9F08330AB
S113010029F108952AB381E090E002C0880F991F75
S11301106A95E2F7809582238ABB089527B381E02C
S113012090E002C0880F991F6A95E2F780958223B8
S113013087BB089524B381E090E002C0880F991F23
S11301406A95E2F78095822384BB089521B381E008
S113015090E002C0880F991F6A95E2F78095822388
S113016081BB08950E94B90080E690E00E94E600F9
S1130170FFCF80B58F7B80BD80B5806880BD80B5A2
S11301808F7E80BD80B58F7D80BD80B5877F80BD2B
S113019080B5826080BD80B5846080BD41E061E04F
S11301A083E00E944100539A40E060E083E00E94B3
S11301B04100549A50985198579855985C985B9878
S11301C05A985998589887E689B90895DC019C9102
S11301D0992349F020E09CB92F5FFD01E20FF11D46
S10F01E090819111F8CF0895F894FFCF9E
S10901EC68656C6C6F00F5
S9030000FC
