S016000044436D6F746F725F4472697665722E737265638B
S11300000C942A000C943C000C943C000C943C008E
S11300100C943C000C943C000C943C000C943C006C
S11300200C943C000C943C000C943C000C943C005C
S11300300C943C000C943C000C943C000C943C004C
S11300400C943C000C943C000C943C000C943C003C
S11300500C943C0011241FBECFE5D8E0DEBFCDBF19
S113006020E0A0E6B0E001C01D92A036B207E1F79F
S11300700E9456010C949C010C94000041E063E042
S113008082E00E94740041E064E082E00E94740017
S113009041E063E081E00E9474000E9464010895DD
S11300A0611571058105910531F061307105810596
S11300B0910561F0089541E063E082E00E94E5006B
S11300C040E064E082E00E94E500089541E064E0DD
S11300D082E00E94E50040E063E082E00E94E500E7
S11300E008950E947D0108954423B9F1413009F037
S11300F06BC0813089F028F08230C9F0833011F16F
S113010008952AB381E090E002C0880F991F6A9590
S1130110E2F7822B8ABB089527B381E090E002C006
S1130120880F991F6A95E2F7822B87BB089524B341
S113013081E090E002C0880F991F6A95E2F7822B54
S113014084BB089521B381E090E002C0880F991F19
S11301506A95E2F7822B81BB0895813091F028F0F3
S11301608230D9F0833029F108952AB381E090E0F8
S113017002C0880F991F6A95E2F7809582238ABB93
S1130180089527B381E090E002C0880F991F6A9513
S1130190E2F78095822387BB089524B381E090E041
S11301A002C0880F991F6A95E2F78095822384BB69
S11301B0089521B381E090E002C0880F991F6A95E9
S11301C0E2F78095822381BB08954423B9F141303D
S11301D009F06BC0813089F028F08230C9F0833097
S11301E011F108952BB381E090E002C0880F991FAC
S11301F06A95E2F7822B8BBB089528B381E090E0E7
S113020002C0880F991F6A95E2F7822B88BB089574
S113021025B381E090E002C0880F991F6A95E2F748
S1130220822B85BB089522B381E090E002C0880F41
S1130230991F6A95E2F7822B82BB0895813091F071
S113024028F08230D9F0833029F108952BB381E06E
S113025090E002C0880F991F6A95E2F78095822387
S11302608BBB089528B381E090E002C0880F991FEA
S11302706A95E2F78095822388BB089525B381E0CF
S113028090E002C0880F991F6A95E2F78095822357
S113029085BB089522B381E090E002C0880F991FC6
S11302A06A95E2F78095822382BB08950E943E00FE
S11302B061E070E080E090E00E94710060E070E036
S11302C0CB010E945000FFCF83B7886083BF83B700
S11302D0806483BF83B7806283BF83B7816083BF39
S11302E083B7826083BF83B78F7783BF8FB78068FC
S11302F08FBF89B7816089BF089520E030E0382F2F
S11303003695279536952795ABE7B4E10E948D0184
S11303109695879581508CBF0895A29FB001B39F95
S1130320C001A39F700D811D1124911DB29F700DFA
S10F0330811D1124911D0895F894FFCF45
S9030000FC
