:100000000C942A000C9434000C9434000C943400AA
:100010000C9434000C9434000C9434000C94340090
:100020000C9434000C9434000C9434000C94340080
:100030000C9434000C9434000C9434000C94340070
:100040000C9434000C9434000C9434000C94340060
:100050000C94340011241FBECFE5D8E0DEBFCDBF25
:100060000E94A7000C94DC000C9400004423B9F11A
:10007000413009F06BC0813089F028F08230C9F03E
:10008000833011F108952AB381E090E002C0880F17
:10009000991F6A95E2F7822B8ABB089527B381E006
:1000A00090E002C0880F991F6A95E2F7822B87BB08
:1000B000089524B381E090E002C0880F991F6A95EB
:1000C000E2F7822B84BB089521B381E090E002C067
:1000D000880F991F6A95E2F7822B81BB08958130C2
:1000E00091F028F08230D9F0833029F108952AB3B5
:1000F00081E090E002C0880F991F6A95E2F7809531
:1001000082238ABB089527B381E090E002C0880F64
:10011000991F6A95E2F78095822387BB089524B3DF
:1001200081E090E002C0880F991F6A95E2F7809500
:10013000822384BB089521B381E090E002C0880F40
:10014000991F6A95E2F78095822381BB08950E94EA
:10015000AD0089E10E94B500FFCF41E065E083E09A
:100160000E9436000E94C60008952AB53BB5982F1C
:10017000882314F493E0980F95959595A901490F5C
:10018000511D97FD5A955BBD4ABD08958FB582609C
:100190008FBD8EB588608EBD8EB580618EBD8FB5EA
:1001A00080688FBD8EB584608EBD8FB5877F8FBD13
:0C01B00089B78B7F89BF0895F894FFCFBA
:00000001FF
