S0190000536572766F4D6F746F725F4472697665722E7372656320
S11300000C942A000C9434000C9434000C943400A6
S11300100C9434000C9434000C9434000C9434008C
S11300200C9434000C9434000C9434000C9434007C
S11300300C9434000C9434000C9434000C9434006C
S11300400C9434000C9434000C9434000C9434005C
S11300500C94340011241FBECFE5D8E0DEBFCDBF21
S11300600E949B000C9406010C940000442379F137
S1130070413009F05FC0813079F028F08230A9F076
S11300808330E1F008952AB381E090E001C0880F45
S11300906A95EAF7822B2CC027B381E090E001C077
S11300A0880F6A95EAF7822B2EC024B381E090E092
S11300B001C0880F6A95EAF7822B30C021B381E032
S11300C090E001C0880F6A95EAF7822B32C0813034
S11300D089F028F08230C9F0833011F108952AB3F1
S11300E081E090E001C0880F6A95EAF78095822349
S11300F08ABB089527B381E090E001C0880F6A9518
S1130100EAF78095822387BB089524B381E090E0C9
S113011001C0880F6A95EAF78095822384BB08950D
S113012021B381E090E001C0880F6A95EAF78095D9
S1130130822381BB08950E94A1008AE50E94A80041
S1130140FFCF41E065E083E00E9436000C94AD00EF
S113015069E00E94D8000C94C3008FB582608FBD03
S11301608EB588608EBD8EB580618EBD8FB580687A
S11301708FBD8EB584608EBD8FB5877F8FBD89B7E7
S11301808B7F89BF089521E732E037BD26BD26B5B0
S113019037B5482F429FC001439F900D112464E658
S11301A070E00E94E600615071097BBD6ABD08954C
S11301B087FB082E062687FD819567FD61950E94C1
S11301C0FA000EF4919507FC81950895AA1BBB1BB8
S11301D051E107C0AA1FBB1FA617B70710F0A61B43
S11301E0B70B881F991F5A95A9F780959095BC0164
S11301F0CD010895991B79E004C0991F961708F062
S1130200961B881F7A95C9F780950895F894FFCFB7
S9030000FC
