S015000054494D4552305F4472697665722E7372656393
S11300000C942A000C9434000C9434000C943400A6
S11300100C9434000C9434000C9434000C9434008C
S11300200C9434000C9434000C944D010C94340062
S11300300C9434000C9434000C9434000C9434006C
S11300400C9434000C9434000C9434000C9434005C
S11300500C94340011241FBECFE5D8E0DEBFCDBF21
S11300600E943E010C94B9010C940000442379F1E0
S1130070413009F05FC0813079F028F08230A9F076
S11300808330E1F008952AB381E090E001C0880F45
S11300906A95EAF7822B2CC027B381E090E001C077
S11300A0880F6A95EAF7822B2EC024B381E090E092
S11300B001C0880F6A95EAF7822B30C021B381E032
S11300C090E001C0880F6A95EAF7822B32C0813034
S11300D089F028F08230C9F0833011F108952AB3F1
S11300E081E090E001C0880F6A95EAF78095822349
S11300F08ABB089527B381E090E001C0880F6A9518
S1130100EAF78095822387BB089524B381E090E0C9
S113011001C0880F6A95EAF78095822384BB08950D
S113012021B381E090E001C0880F6A95EAF78095D9
S1130130822381BB0895442379F1413009F05FC0E3
S1130140813079F028F08230A9F08330E1F008950D
S11301502BB381E090E001C0880F6A95EAF7822B07
S11301602CC028B381E090E001C0880F6A95EAF7BB
S1130170822B2EC025B381E090E001C0880F6A95E0
S1130180EAF7822B30C022B381E090E001C0880FEF
S11301906A95EAF7822B32C0813089F028F08230E8
S11301A0C9F0833011F108952BB381E090E001C0D0
S11301B0880F6A95EAF7809582238BBB089528B34C
S11301C081E090E001C0880F6A95EAF78095822368
S11301D088BB089525B381E090E001C0880F6A953B
S11301E0EAF78095822385BB089522B381E090E0ED
S11301F001C0880F6A95EAF78095822382BB08952F
S1130200813081F028F08230B9F08330F9F008951C
S11302102BB381E090E001C0880F6A95EAF782274A
S11302208BBB089528B381E090E001C0880F6A95E4
S1130230EAF7822788BB089525B381E090E001C0E6
S1130240880F6A95EAF7822785BB089522B381E077
S113025090E001C0880F6A95EAF7822782BB08956F
S113026041E062E082E00C94360041E062E082E02A
S11302700C949B0062E082E00C9400010E94300127
S11302800E9435010E94710168EE73E080E090E005
S11302900E9485010E947B01FFCF1F920F920FB62F
S11302A00F9211242F933F934F935F936F937F93F8
S11302B08F939F93AF93BF93EF93FF930E943A0161
S11302C0FF91EF91BF91AF919F918F917F916F912A
S11302D05F914F913F912F910F900FBE0F901F9000
S11302E0189583B7886083BF89B7826089BF8FB749
S11302F080688FBF089583B78E7F83BF83B78D7F58
S113030083BF83B7846083BF08959B01AC0189E0F8
S1130310220F331F441F551F8A95D1F760E074E202
S113032084EF90E00E94970121502CBF0895A1E230
S11303301A2EAA1BBB1BFD010DC0AA1FBB1FEE1F5B
S1130340FF1FA217B307E407F50720F0A21BB30BA6
S1130350E40BF50B661F771F881F991F1A9469F722
S113036060957095809590959B01AC01BD01CF017E
S10903700895F894FFCF8C
S9030000FC
