S016000044436D6F746F725F4472697665722E737265638B
S11300000C942A000C943C000C943C000C943C008E
S11300100C943C000C943C000C943C000C943C006C
S11300200C943C000C943C000C943C000C943C005C
S11300300C943C000C943C000C943C000C943C004C
S11300400C943C000C943C000C943C000C943C003C
S11300500C943C0011241FBECFE5D8E0DEBFCDBF19
S113006020E0A0E6B0E001C01D92A036B207E1F79F
S11300700E9439010C947C010C94000041E063E07F
S113008082E00E946F0041E064E082E00E946F0021
S113009041E063E081E00E946F000C94450161152A
S11300A071058105910531F0613071058105910576
S11300B049F0089541E063E082E00E94D40040E00A
S11300C064E007C041E064E082E00E94D40040E0C4
S11300D063E082E00C94D40090E00C945E0144232D
S11300E079F1413009F05FC0813079F028F0823035
S11300F0A9F08330E1F008952AB381E090E001C0D3
S1130100880F6A95EAF7822B2CC027B381E090E030
S113011001C0880F6A95EAF7822B2EC024B381E0D0
S113012090E001C0880F6A95EAF7822B30C021B3B2
S113013081E090E001C0880F6A95EAF7822B32C013
S1130140813089F028F08230C9F0833011F10895AC
S11301502AB381E090E001C0880F6A95EAF78095A0
S113016082238ABB089527B381E090E001C0880F01
S11301706A95EAF78095822387BB089524B381E0CA
S113018090E001C0880F6A95EAF78095822384BBCA
S1130190089521B381E090E001C0880F6A95EAF7E1
S11301A08095822381BB0895442379F1413009F07D
S11301B05FC0813079F028F08230A9F08330E1F01B
S11301C008952BB381E090E001C0880F6A95EAF7A7
S11301D0822B2CC028B381E090E001C0880F6A957F
S11301E0EAF7822B2EC025B381E090E001C0880F8E
S11301F06A95EAF7822B30C022B381E090E001C017
S1130200880F6A95EAF7822B32C0813089F028F092
S11302108230C9F0833011F108952BB381E090E06E
S113022001C0880F6A95EAF7809582238BBB0895F5
S113023028B381E090E001C0880F6A95EAF78095C1
S1130240822388BB089525B381E090E001C0880F24
S11302506A95EAF78095822385BB089522B381E0ED
S113026090E001C0880F6A95EAF78095822382BBEB
S113027008950E943E008BE10E946C0061E070E0F2
S113028080E090E00E944F00FFCF83B7886083BF77
S113029083B7806483BF83B7806283BF83B7816081
S11302A083BF83B7826083BF83B78F7783BF8FB7E2
S11302B080688FBF89B7816089BF089520E0982F37
S11302C0822F64E670E00E94680161506CBF08955B
S11302D0AA1BBB1B51E107C0AA1FBB1FA617B70768
S11302E010F0A61BB70B881F991F5A95A9F7809584
S10F02F09095BC01CD010895F894FFCF57
S9030000FC
