S014000055534152545F4472697665722E73726563B6
S11300000C942A000C9447000C9447000C9447006D
S11300100C9447000C9447000C9447000C94470040
S11300200C9447000C9447000C9447000C94470030
S11300300C9447000C9447000C9447000C94470020
S11300400C9447000C9447000C9447000C94470010
S11300500C94470011241FBECFE5D8E0DEBFCDBF0E
S113006010E0A0E6B0E0E6ECF4E002C005900D92EA
S1130070AA36B107D9F720E0AAE6B0E001C01D9284
S1130080AA37B207E1F70E94EE010C9461020C94C6
S11300900000442379F1413009F05FC0813079F0E8
S11300A028F08230A9F08330E1F008952AB381E08A
S11300B090E001C0880F6A95EAF7822B2CC027B321
S11300C081E090E001C0880F6A95EAF7822B2EC088
S11300D024B381E090E001C0880F6A95EAF7822B8F
S11300E030C021B381E090E001C0880F6A95EAF73F
S11300F0822B32C0813089F028F08230C9F08330FD
S113010011F108952AB381E090E001C0880F6A9547
S1130110EAF7809582238ABB089527B381E090E0B3
S113012001C0880F6A95EAF78095822387BB0895FA
S113013024B381E090E001C0880F6A95EAF78095C6
S1130140822384BB089521B381E090E001C0880F2D
S11301506A95EAF78095822381BB0895442379F157
S1130160413009F05FC0813079F028F08230A9F085
S11301708330E1F008952BB381E090E001C0880F53
S11301806A95EAF7822B2CC028B381E090E001C085
S1130190880F6A95EAF7822B2EC025B381E090E0A0
S11301A001C0880F6A95EAF7822B30C022B381E040
S11301B090E001C0880F6A95EAF7822B32C0813043
S11301C089F028F08230C9F0833011F108952BB3FF
S11301D081E090E001C0880F6A95EAF78095822358
S11301E08BBB089528B381E090E001C0880F6A9525
S11301F0EAF78095822388BB089525B381E090E0D7
S113020001C0880F6A95EAF78095822385BB08951B
S113021022B381E090E001C0880F6A95EAF78095E7
S1130220822382BB0895CF93C82F40E061E081E030
S11302300E94AE0040E062E081E00E94AE0040E037
S113024063E081E00E94AE008BB39C2F907F8F709F
S1130250892B8BBB41E063E081E00E94AE008FE913
S11302609FE00197F1F700C0000040E063E081E007
S11302700E94AE002BB330E1C39FC0011124922F22
S11302809F70892B8BBB41E063E081E00E94AE004C
S11302908FE99FE00197F1F700C0000040E063E0C0
S11302A081E00E94AE008FE19EE40197F1F700C067
S11302B00000CF91089541E061E081E00E9449008F
S11302C041E062E081E00E94490041E063E081E0B6
S11302D00E94490041E064E080E00E94490041E05E
S11302E065E080E00E94490041E066E080E00E9411
S11302F0490041E067E080E00E9449002FEF81EE71
S113030094E0215080409040E1F700C0000083E376
S11303100E94130182E30E94130188E20E941301E8
S11303208CE00E94130181E00E94130186E00E9488
S1130330130182E00C941301CF93C82F41E061E0D4
S113034081E00E94AE0040E062E081E00E94AE00E5
S113035040E063E081E00E94AE008C2F807F8BBB85
S113036041E063E081E00E94AE008FE99FE00197E5
S1130370F1F700C0000040E063E081E00E94AE00BD
S1130380C295C07FCBBB41E063E081E00E94AE0038
S11303908FE99FE00197F1F700C0000040E063E0BF
S11303A081E00E94AE008FE19EE40197F1F700C066
S11303B00000CF9108950F931F93CF938C01C0E059
S11303C0F801EC0FF11D8081882321F00E949C012B
S11303D0CF5FF6CFCF911F910F9108950E94FE0138
S11303E00E945B010E949C0180E690E00E942F0223
S11303F00E94460290E00E94DB01FACF41E061E0F6
S113040083E00E94490040E060E083E00E944900EC
S113041080B58F7B80BD80B5806880BD80B58F7EC0
S113042080BD80B58F7D80BD80B5877F80BD80B560
S1130430826080BD80B5846080BD539A549A509880
S11304405198579855985C985B985A985998589829
S113045083E389B908955D9BFECF8CB908950F930A
S11304601F93CF938C01C0E0F801EC0FF11D808144
S1130470882321F00E942B02CF5FF6CFCF911F91EA
S11304800F9108955F9BFECF8CB108950F931F9336
S1130490CF930AE610E0C0E00E9442028A3031F0B5
S11304A0F80181938F01CF5FC031B1F7EC2FF0E0F9
S11304B0E659FF4F11828AE690E0CF911F910F9188
S10904C00895F894FFCF3B
S10D04C6686920697473206D6500F5
S9030000FC
